:100000000C9436000C9453000C9453000C94530041
:100010000C9453000C9453000C9453000C94530014
:100020000C9453000C9453000C9453000C94530004
:100030000C9453000C9453000C9453000C945300F4
:100040000C9453000C9453000C9453000C945300E4
:100050000C9453000C9453000C9453000C945300D4
:100060000C9453000C9453000C94530011241FBEA5
:10007000CFEFD4E0DEBFCDBF11E0A0E0B1E0E8E417
:10008000F3E002C005900D92A631B107D9F721E047
:10009000A6E1B1E001C01D92AC31B207E1F70E94C8
:1000A000B8000C94A2010C940000CF93DF93CDB75D
:1000B000DEB784EC90E027E630E0FC01318320835A
:1000C00080EC90E0FC01108282EC90E022EC30E0C9
:1000D000F9012081FC01208382EC90E022EC30E0E9
:1000E000F90120812660FC01208381EC90E021EC65
:1000F00030E0F90120812860FC01208381EC90E050
:1001000021EC30E0F90120812061FC012083000016
:10011000DF91CF910895CF93DF931F92CDB7DEB7D4
:100120008983000080EC90E0FC018081882F90E0C2
:1001300080729927892BB1F386EC90E02981FC012C
:10014000208300000F90DF91CF910895CF93DF932C
:10015000CDB7DEB7000080EC90E0FC018081882301
:10016000D4F786EC90E0FC018081DF91CF91089577
:10017000CF93DF93CDB7DEB7CB51D1400FB6F89414
:10018000DEBF0FBECDBF0E945500CE0193952EE07D
:10019000FC01322F11923A95E9F7CE01939522E0B6
:1001A000FC012383CE0193952BE830E0FC013187DD
:1001B0002087CE0193959093190180931801CE0169
:1001C000825F9E4F2EE0FC01322F11923A95E9F7A3
:1001D000CE01825F9E4F21E0FC012383CE01825F2E
:1001E0009E4F26EA30E0FC0133872287CE01825FF2
:1001F0009E4F909317018093160180E091E00E943A
:100200003401CE0101960E940A01CE0101960E949E
:100210003401F7CF0F931F93CF93DF93E091160133
:10022000F0911701238120FD03C080E090E017C00A
:10023000C92FD82F082F192F8091160190911701DF
:100240000E9464018F3F2FEF920779F3F8018193A9
:100250008F010A9789F7319710828D2F9C2FDF919C
:10026000CF911F910F9108950F931F93CF93DF9319
:10027000E0911801F0911901238121FF1BC08C012D
:10028000D0E0C0E0F80181918F0160911801709178
:100290001901DB011896ED91FC911997882331F033
:1002A0000995892B79F3DFEFCFEFECCF8AE0099541
:1002B000892B19F08FEF9FEF02C08D2F9C2FDF91BC
:1002C000CF911F910F910895CF93DF93EC012B8174
:1002D00020FF33C026FF0AC02F7B2B838E819F8196
:1002E00001969F838E838A8190E029C022FF0FC0F0
:1002F000E881F9818081082E000C990B009719F490
:1003000020622B831AC03196F983E8830EC0EA85F8
:10031000FB85099597FF09C02B81019611F080E2BA
:1003200001C080E1822B8B8308C02E813F812F5F2B
:100330003F4F3F832E83992702C08FEF9FEFDF91BE
:08034000CF910895F894FFCF5E
:100348005468697320697320612022207072696E75
:0603580074662022200063
:00000001FF
