:100000000C9436000C9440000C9440000C9440007A
:100010000C9440000C9440000C9440000C94400060
:100020000C9440000C9440000C9440000C94400050
:100030000C9440000C9440000C9440000C94400040
:100040000C9440000C9440000C9440000C94400030
:100050000C9440000C9440000C9440000C94400020
:100060000C9440000C9440000C94400011241FBEDE
:10007000CFEFD4E0DEBFCDBF0E94A5000C94B60048
:100080000C940000CF93DF93CDB7DEB784EC90E003
:1000900027E630E0FC013183208380EC90E0FC0116
:1000A000108282EC90E022EC30E0F9012081FC012A
:1000B000208382EC90E022EC30E0F9012081266080
:1000C000FC01208381EC90E021EC30E0F9012081FB
:1000D0002860FC01208381EC90E021EC30E0F90104
:1000E00020812061FC0120830000DF91CF910895E1
:1000F000CF93DF931F92CDB7DEB78983000080ECEA
:1001000090E0FC018081882F90E080729927892BF4
:10011000B1F386EC90E02981FC01208300000F9070
:10012000DF91CF910895CF93DF93CDB7DEB7000075
:1001300080EC90E0FC0180818823D4F786EC90E08D
:10014000FC018081DF91CF910895CF93DF931F92BF
:10015000CDB7DEB70E9442000E9493008983898157
:100160008236D1F789810E947800F6CFF894FFCFCC
:00000001FF
